{
  "_format": "hh-sol-artifact-1",
  "contractName": "Escrow",
  "sourceName": "contracts/escrow.sol",
  "abi": [
    {
      "inputs": [
        {
          "internalType": "address",
          "name": "_agent",
          "type": "address"
        },
        {
          "internalType": "address",
          "name": "_beneficiary",
          "type": "address"
        }
      ],
      "stateMutability": "payable",
      "type": "constructor"
    },
    {
      "anonymous": false,
      "inputs": [
        {
          "indexed": false,
          "internalType": "uint256",
          "name": "balance",
          "type": "uint256"
        }
      ],
      "name": "Approved",
      "type": "event"
    },
    {
      "inputs": [],
      "name": "agent",
      "outputs": [
        {
          "internalType": "address",
          "name": "",
          "type": "address"
        }
      ],
      "stateMutability": "view",
      "type": "function"
    },
    {
      "inputs": [],
      "name": "approve",
      "outputs": [],
      "stateMutability": "nonpayable",
      "type": "function"
    },
    {
      "inputs": [],
      "name": "beneficiary",
      "outputs": [
        {
          "internalType": "address",
          "name": "",
          "type": "address"
        }
      ],
      "stateMutability": "view",
      "type": "function"
    },
    {
      "inputs": [],
      "name": "depositor",
      "outputs": [
        {
          "internalType": "address",
          "name": "",
          "type": "address"
        }
      ],
      "stateMutability": "view",
      "type": "function"
    },
    {
      "inputs": [],
      "name": "isApproved",
      "outputs": [
        {
          "internalType": "bool",
          "name": "",
          "type": "bool"
        }
      ],
      "stateMutability": "view",
      "type": "function"
    }
  ],
  "bytecode": "0x60806040526040516106dd3803806106dd83398181016040528101906100259190610151565b33600160006101000a81548173ffffffffffffffffffffffffffffffffffffffff021916908373ffffffffffffffffffffffffffffffffffffffff160217905550816000806101000a81548173ffffffffffffffffffffffffffffffffffffffff021916908373ffffffffffffffffffffffffffffffffffffffff16021790555080600260006101000a81548173ffffffffffffffffffffffffffffffffffffffff021916908373ffffffffffffffffffffffffffffffffffffffff1602179055505050610191565b600080fd5b600073ffffffffffffffffffffffffffffffffffffffff82169050919050565b600061011e826100f3565b9050919050565b61012e81610113565b811461013957600080fd5b50565b60008151905061014b81610125565b92915050565b60008060408385031215610168576101676100ee565b5b60006101768582860161013c565b92505060206101878582860161013c565b9150509250929050565b61053d806101a06000396000f3fe608060405234801561001057600080fd5b50600436106100575760003560e01c806312424e3f1461005c57806328f371aa1461006657806338af3eed14610084578063c7c4ff46146100a2578063f5ff5c76146100c0575b600080fd5b6100646100de565b005b61006e61028f565b60405161007b919061032d565b60405180910390f35b61008c6102a2565b6040516100999190610389565b60405180910390f35b6100aa6102c8565b6040516100b79190610389565b60405180910390f35b6100c86102ee565b6040516100d59190610389565b60405180910390f35b60008054906101000a900473ffffffffffffffffffffffffffffffffffffffff1673ffffffffffffffffffffffffffffffffffffffff163373ffffffffffffffffffffffffffffffffffffffff161461016c576040517f08c379a000000000000000000000000000000000000000000000000000000000815260040161016390610401565b60405180910390fd5b6000600260009054906101000a900473ffffffffffffffffffffffffffffffffffffffff1673ffffffffffffffffffffffffffffffffffffffff16476040516101b490610452565b60006040518083038185875af1925050503d80600081146101f1576040519150601f19603f3d011682016040523d82523d6000602084013e6101f6565b606091505b505090508061023a576040517f08c379a0000000000000000000000000000000000000000000000000000000008152600401610231906104b3565b60405180910390fd5b6001600260146101000a81548160ff0219169083151502179055507f3ad93af63cb7967b23e4fb500b7d7d28b07516325dcf341f88bebf959d82c1cb4760405161028491906104ec565b60405180910390a150565b600260149054906101000a900460ff1681565b600260009054906101000a900473ffffffffffffffffffffffffffffffffffffffff1681565b600160009054906101000a900473ffffffffffffffffffffffffffffffffffffffff1681565b60008054906101000a900473ffffffffffffffffffffffffffffffffffffffff1681565b60008115159050919050565b61032781610312565b82525050565b6000602082019050610342600083018461031e565b92915050565b600073ffffffffffffffffffffffffffffffffffffffff82169050919050565b600061037382610348565b9050919050565b61038381610368565b82525050565b600060208201905061039e600083018461037a565b92915050565b600082825260208201905092915050565b7f596f7520617265206e6f742074686520657363726f77206167656e7400000000600082015250565b60006103eb601c836103a4565b91506103f6826103b5565b602082019050919050565b6000602082019050818103600083015261041a816103de565b9050919050565b600081905092915050565b50565b600061043c600083610421565b91506104478261042c565b600082019050919050565b600061045d8261042f565b9150819050919050565b7f4661696c656420746f2073656e64206574686572000000000000000000000000600082015250565b600061049d6014836103a4565b91506104a882610467565b602082019050919050565b600060208201905081810360008301526104cc81610490565b9050919050565b6000819050919050565b6104e6816104d3565b82525050565b600060208201905061050160008301846104dd565b9291505056fea264697066735822122028371b2fb433b99242560c426aff1ca9a4f4442ed321aae9ddff5ea8121be7e364736f6c63430008110033",
  "linkReferences": {},
  "deployedLinkReferences": {}
}